:020000040800F2
:10000000C004002005010008DF170008AD14000837
:10001000DD170008C7030008A3190008000000004E
:10002000000000000000000000000000E3170008CE
:10003000C903000800000000E1170008E5170008E8
:100040001F0100081F0100081F0100081F01000810
:100050001F0100081F0100081F0100081F01000800
:100060001F0100081F0100081F0100081F010008F0
:100070001F0100081F0100081F0100081F010008E0
:100080001F0100081F0100081F0100081F010008D0
:100090001F0100081F0100081F0100081F010008C0
:1000A0001F0100081F0100081F0100088118000837
:1000B0001F0100081F0100081F0100081F010008A0
:1000C0001F0100081F0100081F0100081F01000890
:1000D0001F0100081F0100081F0100081F01000880
:1000E0001F0100081F0100081F010008DFF810D0E1
:1000F00000F048F900480047211B0008AFF30080DA
:10010000C00400200648804706480047FEE7FEE797
:10011000FEE7FEE7FEE7FEE7FEE7FEE7FEE7FEE7B7
:1001200039180008ED000008202A04DB203A21FAE3
:1001300002F00021704721FA02F3D040C2F1200200
:100140009140084319467047D2B201E000F8012BF4
:10015000491EFBD270470022F6E710B513460A4647
:1001600004461946FFF7F0FF204610BD2DE9FE4F6B
:1001700081EA030404F0004421F0004100944FF0B0
:10018000000B23F0004350EA01045ED052EA03045E
:100190005BD0C3F30A54C1F30A552C44A4F2F334E0
:1001A0000194A0FB0254C1F3130141F48011C3F385
:1001B000130343F4801301FB024400FB034E840A43
:1001C000970A44EA815447EA8357A4FB07680295DB
:1001D0008D0A05FB07854FEA932C04FB0C54270579
:1001E000029D4FEA065847EA1637B5EB08056EEB55
:1001F000070C870E920E47EA811742EA8312A7FB8B
:100200000201B6EB0B0164EB00042B0D43EA0C3347
:100210005E1844EB1C50DA465146E7FB0201C5F379
:1002200013044FEA0B3343EA14534FEA0432019CA0
:1002300043EA0603A4F10C040294009CCDE900B447
:1002400000F052F803B0BDE8F08F00200146F9E756
:1002500070B521F0004303430CD0C1F30A550024CC
:10026000D5EB040564EB0403D617AD1AB34102DBEA
:100270000020014670BD201841EB025170BD0EB543
:1002800040F2334102910021CDE900110A460B46AC
:1002900000F02AF803B000BDC1F30A5210B5C1F353
:1002A000130140F2FF3341F480119A4201DA002039
:1002B00010BD40F233439A42A2F2334203DC524271
:1002C000FFF732FF10BD904010BD10B5141E73F142
:1002D000000408DA401C41F1000192185B411A4306
:1002E00001D120F0010010BD2DE9F04D92469B4652
:1002F00011B1B1FA81F202E0B0FA80F220329046F8
:1003000000F052F804460F4640EA0A0041EA0B01A9
:1003100053465A46084313D0114653EA010019D0F8
:10032000C8F140025046FFF7FFFE05460E46504614
:100330005946424600F038F8084305D0012004E051
:1003400020463946BDE8F08D0020054346EAE076B8
:100350002C4337430A986305E40AA0EB0800002207
:10036000FD0A44EA47540A3002D500200146E9E775
:10037000010510196941DDE9084500196941BDE829
:10038000F04DA2E7064C074D06E0E06840F001039F
:1003900094E8070098471034AC42F6D3FFF7AAFE62
:1003A000F01B0008101C0008202A04DB203A00FA89
:1003B00002F1002070479140C2F1200320FA03F3BC
:1003C000194390407047FEE77047000070B504463F
:1003D00000F004F90546601C02D00448007804448B
:1003E00000F0FCF8401BA042FAD370BD10000020C2
:1003F0002DE9F84FDFF8B891002409F1040A0AF159
:10040000040B23460F270BF1040EC9E00125A5407C
:100410002A40AA427DD1674ED1F804C0ACEB060851
:10042000B44532D014DCBCF1030F3AD009DCBCF186
:10043000000F2AD0BCF1010F1CD0BCF1020F31D14A
:100440001DE0BCF1110F17D0BCF1120F2AD119E039
:10045000B8F5881F19D006DCB8F5803F15D0B8F57F
:10046000801F1FD111E0B8F5001F0ED0B8F5041F92
:1004700018D10AE0CB6815E0CB681B1D12E0CB68F1
:1004800008330FE0CB680C330CE08B682BB1012BE9
:100490004FF0080303D0456104E0042302E0056146
:1004A00000E00023FF2A01D8064601E000F104061F
:1004B0004FEA840501D9A5F12005D6F8008007FA96
:1004C00005FC28EA0C0803FA05F548EA0508C6F811
:1004D00000804D68ED0062D5374DAE6946F00106EB
:1004E000AE61AD6924F0030605F001050095334DBA
:1004F00006EB050CDCF80850A607360F07FA06F8DD
:1005000025EA0805DFF8B880404503D14FF0000820
:1005100017E044E0DFF8AC80404502D14FF001081D
:100520000FE0DFF8A480404502D14FF0020808E058
:10053000DFF89880404502D14FF0030801E04FF00A
:10054000040808FA06F848EA0508CCF808804D685F
:10055000D9F80060ED034D4601D5164300E09643FF
:100560002E604D68DAF80060AD03554601D516439C
:1005700000E096432E604D68DBF80060ED025D46BA
:1005800001D5164300E096432E604D68DEF800600A
:10059000AD02754601D5164300E096432E60641CFB
:1005A0000D682A46E5407FF431AFBDE8F88F0000C2
:1005B0000004014000001110001002400000014042
:1005C00000080140000C01400010014000140140EF
:1005D0000AB1016170470904FBE700000148806827
:1005E000704700001000002070B5040025D094F87A
:1005F0003D00002520B984F83C50204600F04EF91B
:10060000242084F83D002068016821F00101016088
:100610002068016841F4004101602068016821F40C
:100620000041016000F096FA4D4A6168914201D89C
:100630004C4900E04C49884201D2012070BD4B4931
:100640002368B0FBF1F15E6826F03F060E435E6062
:100650006368934206D94FF4967359434FF47A7303
:10066000B1FBF3F12368491C1E6A26F03F063143B3
:1006700019626168914210D84900401EB0FBF1F246
:10068000521CC2F30B02042A01D2042022E0B0FB68
:10069000F1F0401CC0F30B001CE0A268F2B301EBC8
:1006A000C10303EB0116431EB3FBF6F35B1C43F4DB
:1006B00080431B0549D092B301EBC10202EB01114B
:1006C000401EB0FBF1F0401CC0F30B0040F4804032
:1006D00040F400402168CA694CF6FF739A43104306
:1006E000C861D4E9071001432068026822F0C00203
:1006F00011430160D4E9030101432068826848F294
:10070000FF339A4311438160D4E90501084321680E
:10071000CA6822F0FF021043C86001E00EE016E054
:100720002068016841F0010101602564202084F8FF
:100730003D00256384F83E50002070BD01EB41066A
:10074000431EB3FBF6F35B1CB3E70120C2E701EBEA
:100750004101401EB0FBF1F0401CC0F30B00B7E7B5
:10076000A086010080841E0000093D0040420F0069
:100770002DE9F84F1F4690468A460446DDF828903A
:10078000FFF72CFF054694F83D0020287FD1192360
:10079000012240492046009500F014FF002876D140
:1007A00094F83C00012872D0012084F83C002068B5
:1007B0000168C90703D1016841F0010101602068A7
:1007C000016821F400610160212084F83D001020BF
:1007D00084F83E0000262664C4F824806785608D76
:1007E00020852D48E0622B464A465146204600F0BF
:1007F00075FE90B9206841698069009036E02A460C
:100800004946204600F05DFF50B1206C042804D119
:100810002068016841F4007101600120BDE8F88F93
:10082000606A216800780861606A401C6062618DBE
:10083000491E6185218D491E89B22185226853692F
:10084000DB435B070BD451B100781061606A401C38
:100850006062608D401E6085208D401E20852A4686
:100860004946204600F088FE0028CED1208D002881
:10087000C5D154F83D0B016841F40071016020209E
:1008800004F81E09E67766770020C7E7FFE7022035
:10089000C4E70000020010000000FFFF10B586B0A2
:1008A0000021009101910291039100680F49884253
:1008B0001AD10F4CA06940F00800A061A0696946F8
:1008C00000F008000490C020009012200190032046
:1008D00003900848FFF78CFDE06940F40010E061E8
:1008E000E06900F40010049006B010BD0054004010
:1008F00000100240000C0140024881680278114457
:100900008160704710000020074810B5016841F071
:1009100010010160032000F075F8002000F006F8D7
:1009200000F024F8002010BD0020024070B50D4DED
:1009300004464FF47A712878B1FBF0F00A4909684F
:10094000B1FBF0F000F0DCFA48B9102C07D200221D
:100950002146501E00F036F800206C6070BD01206A
:1009600070BD0000100000201C0000200C4808B5DD
:10097000816941F001018161816901F0010100910A
:10098000C16941F08051C161C06900F080500090A0
:100990000448416821F0E06141F00071416008BD08
:1009A0000010024000000140002809DB00F01F0297
:1009B000012191404009800000F1E020C0F80011C1
:1009C00070470000F0B40E4B1B680C46C3F30223C3
:1009D000C3F10705042D00D90425191D072901D2EB
:1009E000002300E0DB1E012606FA05F1491E214026
:1009F00099409E40761E16403143F0BC00F0D2BFB5
:100A00000CED00E0064900F0070208684FF6FF030E
:100A1000184040EA0220034A104308607047000073
:100A20000CED00E00000FA052DE9F0470F46050047
:100A300061D0434E306800F00700B84209D23068F8
:100A400020F0070038433060306800F00700B842FB
:100A500051D128683B4C810712D5400703D5606807
:100A600040F4E06060602878000703D5606840F4D7
:100A7000605060606068A96820F0F0000843606022
:100A80002878C00728D06868012810D0216802287B
:100A900010D0890700292EDA616821F00301014393
:100AA0006160FFF79BFD804641F288390DE02168C7
:100AB0008903EFE78901EDE7FFF790FDA0EB08015F
:100AC000494502D90320BDE8F0876068696800F0F5
:100AD0000C00B0EB810FEFD1306800F00700B84296
:100AE0000BD9306820F0070038433060306800F0E0
:100AF0000700B84201D00120E5E72878400705D576
:100B00006068E96820F4E0600843606028780007C6
:100B100006D56068296920F4605040EAC100606031
:100B200000F028F86168084AC1F30311515CC8401D
:100B30000649086006480068FFF7F8FE0020C2E793
:100B40000020024000100240D81B00081C000020BA
:100B5000140000200448054900684968044AC1F3AC
:100B60000221515CC84070471C0000200010024068
:100B7000E81B000812A185B00FC98DE80F0014A072
:100B8000144A006804905168134801F00C03042BC8
:100B900010D0082B0ED1C1F38343C9031DF8030005
:100BA0000AD5516804AAC1F34041515C0A4A504336
:100BB000B0FBF1F005B0704708494843FAE7000080
:100BC00002030405060708090A0B0C0D0E0F10108E
:100BD000010200000010024000127A0000093D00EE
:100BE0002DE9F84F040070D02078C04DC00749D0DF
:100BF0006868C0F38100012807D06868C0F38100ED
:100C0000022809D16868C00306D52868800339D551
:100C100060680028E7D035E06068B0F5803F0BD011
:100C200010B1B0F5A02F11D0286820F480302860D2
:100C3000286820F4802002E0286840F48030286092
:100C4000606890B1FFF7CAFC06460AE0286840F4E5
:100C500080202860F0E700BFFFF7C0FC801B6428FD
:100C600073D828688003F7D50CE0FFF7B7FC064679
:100C700005E000BFFFF7B2FC801B6428F0D82868AD
:100C80008003F7D420789A4E80074FF001094FF087
:100C9000000839D5686810F00C0F07D06868C0F3F9
:100CA0008100022809D16868C00306D4286880073B
:100CB00014D52069012808D110E02069B0B1C6F828
:100CC0000090FFF78BFC074605E00AE1FFF786FC82
:100CD000C01B0228C4D828688007F7D52868616936
:100CE00020F0F80040EAC10028600DE0C6F800805E
:100CF000FFF774FC074604E0FFF770FCC01B0228F6
:100D000023D828688007F7D4207800072CD57948A5
:100D1000A169D9B1C0F80090FFF760FC074604E074
:100D2000FFF75CFCC01B02280FD8686A8007F7D564
:100D300071484FF4FA510068B0FBF1F0009000BF29
:100D40000098411E0091FAD20EE080E0C0F80080C9
:100D5000FFF744FC074604E0FFF740FCC01B0228F5
:100D600075D8686A8007F7D42078400760D5E869AD
:100D70000027C00008D4E86940F08050E861E869C5
:100D8000012700F0805000905C480168C90513D429
:100D90000168834641F480710160FFF71FFC8246C1
:100DA00006E000BFFFF71AFCA0EB0A0064284ED84B
:100DB000DBF80000C005F5D5E06801280AD008B1CD
:100DC000052813D0286A20F001002862286A20F044
:100DD000040002E0286A40F001002862E06841F265
:100DE000883B98B1FFF7FAFB82460BE0286A40F097
:100DF00004002862EEE700BFFFF7F0FBA0EB0A015A
:100E000059455AD8286A8007F6D50CE0FFF7E6FB6B
:100E1000824605E0FFF7E2FBA0EB0A0159454CD8FA
:100E2000286A8007F6D41FB1E86920F08050E86195
:100E3000E06988B36968C1F38101022944D00228BE
:100E4000C6F8608004D0FFF7C9FB044638E034E000
:100E5000FFF7C4FB074604E0FFF7C0FBC01B0228F6
:100E60002BD828688001F7D4206AB0F5803F05D1DF
:100E70006868A16820F4003008436860D4E908017C
:100E80000843696821F4741108436860C6F86090EB
:100E9000FFF7A4FB044606E025E000BFFFF79EFB3A
:100EA000001B022809D828688001F7D51BE000BF85
:100EB000FFF794FB001B022802D90320BDE8F88F3E
:100EC00028688001F4D40EE00128F7D06868226A0F
:100ED00000F48031914204D1616A00F470108842BC
:100EE00001D00120EAE70020E8E7000000100240FE
:100EF00000004242800442421C000020007000407A
:100F000010B5401EB0F1807F01D3012010BD4FF01D
:100F1000E02460610F21601700F044FD0020A06113
:100F200007202061002010BD7047704770B590F811
:100F30003C20012A26D0012480F83C40022280F87F
:100F40003D2003685A689D6822F070060A683243A3
:100F50005A600D4B02689A4208D0B2F1804F05D01A
:100F60000A4B9A4202D00A4B9A4204D1496825F0B2
:100F700080031943916080F83D40002180F83C10C7
:100F8000084670BD022070BD002C014000040040E6
:100F90000008004070B50446007F01282AD11F4D8B
:100FA000287840B3012825D10021204600F04CFAD2
:100FB000A860216800264E626968401AE860FFF761
:100FC0005EF9174A174BFFF7D1F8721EFFF740F989
:100FD000FFF762F968702E702068016A21F00A013B
:100FE00001622068016A01620F480068C16821F04F
:100FF0000201C16070BD0021204600F025FA686042
:10100000012028702068016A21F00A01016220682D
:10101000016A41F00201016270BD00000000002081
:10102000006F8104C58FA13F740000202DE9F041BD
:10103000054690F83C000C46012836D0012085F882
:101040003C008AB3042A42D02868082A51D0D4E947
:101050000023E168066A26F480560662C669076ABC
:1010600026F4407646EA03234FF6FF7606EA01317E
:1010700023F4704319434FF4005627F4005306EA53
:1010800002321A43C16102622868C16921F44061D9
:10109000C1612868C169A26841EA0221C1610020DA
:1010A00085F83C00BDE8F08101E00220FAE7D4E9D0
:1010B0000012E368286800F02DFC2868816921F09F
:1010C0000C01816128688169A26811430FE0D4E9AD
:1010D0000012E368286800F049FC2868816921F45F
:1010E0004061816128688169A26841EA02218161C9
:1010F000D5E7D4E90027267B016A21F480710162DB
:10110000C169036A21F00301394321F0F007310777
:101110004FF4007647EA116123F4007306EA0222D5
:101120001A43C16102622868C16921F00C01C161E2
:101130002868C169A2681143B0E710B5040003D064
:1011400094F83D0010B107E0012010BD002084F8A4
:101150003C00204600F01EF8022084F83D00211DCE
:10116000206800F093FB012084F8460084F83E00DC
:1011700084F83F0084F8400084F8410084F842007D
:1011800084F8430084F8440084F8450084F83D0066
:10119000002010BD00B585B00021009101910291A1
:1011A00003910068124988421FD11248816941F4B5
:1011B00000618161816901F400610491816941F0FC
:1011C000040181618069694600F0040004904FF4D5
:1011D000807000900848FFF70BF9002211461B2091
:1011E000FFF7F0FB1B20FFF7DFFB05B000BD0000A1
:1011F000002C0140001002400008014010B50446D8
:1012000051B104290DD0082910D094F8410094F868
:101210004520012811D10EE094F83E0094F84220B8
:10122000F7E794F83F0094F84320F2E794F8400081
:1012300094F84420EDE7012A01D0012010BD0220DE
:1012400051B1042911D0082918D084F8410084F83C
:1012500045000C291BD136E084F83E0084F842009A
:101260002068C26842F0020210E084F83F0084F86F
:1012700043002068C26842F0040207E084F840009E
:1012800084F844002068C26842F00802C26001226B
:10129000206800F031FB0E492068884208D0B0F188
:1012A000804F05D00B49884202D00B49884204D1B7
:1012B000816801F00701062903D0016841F00101AE
:1012C0000160002010BD2068C26842F01002DDE716
:1012D000002C0140000400400008004070B50446A6
:1012E000006801694FF00005C943890715D4C1683A
:1012F000C943890711D4E91E0161012020772068C4
:1013000080698007204602D0FFF744FE04E000F029
:1013100098F8204600F096F8257720680169C943BF
:10132000490717D4C168C943490713D46FF00401B2
:101330000161022020772068806910F4407F2046F8
:1013400002D0FFF727FE04E000F07BF8204600F013
:1013500079F8257720680169C943090716D4C1685F
:10136000C943090712D46FF00801016104202077F6
:101370002068C0698007204602D0FFF70BFE04E01A
:1013800000F05FF8204600F05DF8257720680169DD
:10139000C943C90617D4C168C943C90613D46FF03D
:1013A00010010161082020772068C06910F4407F97
:1013B000204602D0FFF7EEFD04E000F042F82046A0
:1013C00000F040F8257720680169C943C90708D1B2
:1013D000C168C943C90704D1891E0161204600F0D4
:1013E00032F820680169C943090609D4C168C943B4
:1013F000090605D46FF0800101612046FFF794FDD6
:1014000020680169C943490609D4C168C94349062E
:1014100005D46FF040010161204600F02AF82068F1
:101420000169C94389060BD4C168C943890607D439
:101430006FF0200101612046BDE87040FFF775BDE7
:1014400070BD7047704770470246002041B10429C3
:1014500009D008290AD00C2901D11068006C704706
:101460001068406B70471068806B70471068C06BE5
:101470007047704770B501220A4D54022146284634
:10148000FFF7A6F80A2000F0ADFA00222146284610
:10149000FFF79EF804480068C16841F00201C1608E
:1014A00070BD00000008014074000020FEE70168E4
:1014B0004A69D24352050FD46FF480624A61002119
:1014C00040F8301F202242738173026942F0040207
:1014D000026101730120704700207047F8B504468F
:1014E000C06A1E460D461746082807D0012805D0B9
:1014F00010F5803F02D0206B122804D120680168CB
:1015000041F480710160134600224FF00111204622
:10151000009600F057F840B120680068C00502D579
:101520004FF4007020640320F8BD2069B0F5804FAF
:101530000ED00620216800EAD51040F0F0000861C6
:1015400033463A460B49204600F070F878B902E07D
:1015500005F0FE0000E0E8B2216808610549334665
:101560003A46891F204600F061F80028DCD00120AF
:10157000F8BD00000800010070B516460D4604468F
:101580000DE02046FFF793FF08B1012070BD681CF5
:1015900005D0FFF723F8801BA84207D835B1206893
:1015A0004069C0434007ECD4002070BD002044F8DF
:1015B000300F20216173A073216941F02001216166
:1015C0002073E2E72DE9F0471E4690460D4604469B
:1015D000C1F30747DDF8209008E0701C06D0FEF745
:1015E000FDFFA0EB0900B0420FD876B12068012FB3
:1015F00018D0806925EA00000004000C14D00021F6
:101600004145EAD00020BDE8F087002044F8300FC3
:1016100020216173A073216941F0200121612073B1
:101620000120F0E74069E5E70121E9E72DE9F0470E
:101630009A4691460E46044600254FF02008C1F315
:10164000074725E020684069C043400514D420685E
:10165000016841F40071016021686FF480604861A5
:10166000256384F83D8084F83E50206C40F00400EF
:10167000206484F83C501FE0B9F1FF3F08D0FEF72A
:10168000ADFFA0EB0A0149450CD8B9F1000F09D014
:101690002068012F13D0806926EA00000004000CA6
:1016A0000BD0CFE744F8305F84F80D80A573206934
:1016B00040F02000206125730120BDE8F0874069DB
:1016C000EAE770B516460D4604460DE02046FFF7E2
:1016D000EEFE08B1012070BD681C05D0FEF77EFF4C
:1016E000801BA84207D835B120684069C043000676
:1016F000ECD4002070BD002044F8300F202161732D
:10170000A073216941F0200121612073E2E700000C
:1017100070B586B000241848009401940294039494
:10172000816941F020018161816901F0200104910A
:10173000816941F004018161816901F00401049132
:10174000816941F00801816180690C4E00F0080058
:101750004FF400750490002229463046FEF738FF0A
:1017600001200095CDE9010402200390694630462E
:10177000FEF73EFE06B070BD0010024000080140BA
:1017800010B586B000241448059404940094019484
:1017900002941049039401604721C0E901144FF6F7
:1017A000FE71C0E9031444618461FFF7C6FC049430
:1017B00004A909480594FFF7B9FB0120CDE90040D1
:1017C00002940022694604480394FFF72FFC06B0F8
:1017D00010BD0000002C014074000020FEE770479F
:1017E00070477047FFF788B830B58FB0282168463A
:1017F000FEF7B1FC14210AA8FEF7ADFC0121080494
:10180000CDE900100024029402250491CDE907508F
:101810004FF4E01009906846FFF7E2F90F20CDE998
:101820000A056802CDE90C4002210AA80E94FFF7D0
:10183000FBF80FB030BD00000D48016841F0010118
:10184000016041680B4A1140416001680A4A114039
:101850000160016821F480210160416821F4FE01EA
:1018600041604FF41F0181600449C0030860704764
:10187000001002400000FFF8FFFFF6FE08ED00E058
:101880000148FFF72BBD000074000020F0B502688E
:10189000164B174C174D4FF08047984205D0B84271
:1018A00003D0A04201D0A84203D122F070064A68BA
:1018B0003243984205D0B84203D0A04201D0A8429A
:1018C00003D122F44074CA6822434C6922F080029A
:1018D000224302608A68C2620A688262984201D129
:1018E0000969016301214161F0BD0000002C014044
:1018F000000400400008004010B501F01F03012162
:10190000046A99408C430462016A9A40114301625F
:1019100010BD000070B5046A24F0010404628469FB
:10192000056A0F4EB04208D0B0F1804F05D00D4E81
:10193000B04202D00C4EB04203D124F00304144351
:1019400001E044F001041A0724F0F00444EA1262B2
:1019500025F00A0301F00A0119438261016270BD9A
:10196000002C0140000400400008004030B5046A2B
:1019700024F0100404628469056A24F4407444EA83
:10198000022222F470444FF6FF7202EA033222432D
:10199000A02425F0A00304EA011119438261016229
:1019A00030BDFEE70907090E002804DB00F1E02046
:1019B00080F80014704700F00F0000F1E02080F87C
:1019C000141D704702E008C8121F08C1002AFAD18E
:1019D00070477047002001E001C1121F002AFBD1AF
:1019E00070470000044900220B685A6209684A6A7D
:1019F0008242FCD3704700007400002010B53220F2
:101A0000FEF7E4FC302000F041F80520FEF7DEFC94
:101A1000302000F03BF80120FEF7D8FC302000F029
:101A200035F80A20FEF7D2FC202000F02FF80A201B
:101A3000FEF7CCFC282000F029F80120FEF7C6FCB8
:101A4000082000F023F80120FEF7C0FC012000F080
:101A50001DF80120FEF7BAFC0120FEF7B7FC0620B6
:101A600000F014F80120FEF7B1FCBDE810400C2096
:101A700000F00CB810B1012805D102E041F080015E
:101A800001E041F0C001C8B2AFF300801CB500F026
:101A9000F00141F00C028DF8042041F00801000132
:101AA0008DF8051040F00C018DF8061040F008008C
:101AB0008DF8070064200090042301AA4E210248FB
:101AC000FEF756FE1CBD0000200000201CB500F0F3
:101AD000F00141F00D028DF8042041F009010001F0
:101AE0008DF8051040F00D018DF8061040F009004A
:101AF0008DF8070064200090042301AA4E210248BB
:101B0000FEF736FE1CBD00002000002010B5044684
:101B100002E0641CFFF7DAFF20780028F9D110BD3D
:101B2000FEF7F2FEFFF760FEFFF7F2FD23482249C1
:101B30004FF4804201602249416000218160C0E988
:101B4000031241618161C1610162FEF74DFDFFF742
:101B500017FEFFF753FF194800215430FFF74EFBE3
:101B600018A0FFF7D3FF0A25194C6426FFF782FC63
:101B70000A210020FFF77EFF6078B0FBF6F03030DE
:101B8000C0B2FFF7A3FF6078B0FBF5F0B0FBF5F152
:101B900005FB11003030FFF799FF6078B0FBF5F1DD
:101BA00005FB11003030FFF791FF0AA0FFF7AEFFF1
:101BB000C820FEF70BFCD9E70054004020000020AD
:101BC000A086010044697374616E63653D20000066
:101BD0000000002020636D000000000000000000F5
:101BE00001020304060708090000000001020304C3
:101BF000101C00080000002020000000C41900088C
:101C0000301C000820000020A0040000D4190008A7
:101C100000000000000000000000000000000000C4
:101C20000100000010000000000000000024F4008B
:04000005080000ED02
:00000001FF
